:1000000014C02CC02CC02AC029C028C027C026C0BC
:100010006CC024C023C022C021C033C042C01EC057
:100020001DC01CC01BC01AC019C011241FBECFEDBB
:10003000CDBF10E0A0E6B0E0E2E3F1E002C0059041
:100040000D92A236B107D9F720E0A2E6B0E001C0D8
:100050001D92A436B207E1F70CD069C0D1CF1F9230
:100060000F920FB60F9211240F900FBE0F901F909A
:10007000189580E886BD16BC29D062E484E22ED0B3
:10008000FFCF1F920F920FB60F9211248F9383B759
:10009000887F83BF12BE8F910F900FBE0F901F906D
:1000A00018951F920F920FB60F9211248F939F9362
:1000B0008CB7865F8CBF98B384E0892788BB9F91FB
:1000C0008F910F900FBE0F901F90189512B883E379
:1000D00089B988E08AB986E283B908955D9BFECF2D
:1000E0008CB95D9BFECF6CB908951F920F920FB62D
:1000F0000F9211248F93EF93FF93809160008823D8
:1001000069F0E0916000F0E0EE59FF4F80818CB91A
:100110008091600081508093600001C05598FF91EC
:10012000EF918F910F900FBE0F901F901895F8943C
:02013000FFCFFF
:020132000200C9
:00000001FF
