:1000000014C043C020C01FC01EC01DC01CC01BC0E8
:100010006BC119C018C08AC016C074C07DC013C09F
:1000200012C011C010C00FC00EC011241FBECFEDF2
:10003000CDBF20E0A0E6B0E001C01D92A836B20717
:10004000E1F732D173C1DCCFCF93C82FD1D080ED8F
:1000500006D1F6D08C2F03D1F3D0CF910895CF9352
:10006000DF93F2DFC5D081EDFAD0EAD00AD1C82FF4
:10007000D0E0DC2FCC27D5D004D1C82BDAD0CAD021
:10008000CE01DF91CF91089508951F920F920FB680
:100090000F9211242F933F934F935F936F937F930E
:1000A0008F939F93AF93BF93EF93FF938BE3D7DF30
:1000B00020916400309165008217930729F0909396
:1000C0006500809364000DC08DE3C9DF2091660058
:1000D000309167008217930721F090936700809317
:1000E0006600FF91EF91BF91AF919F918F917F91AA
:1000F0006F915F914F913F912F910F900FBE0F9095
:100100001F9018951F920F920FB60F9211240F9007
:100110000FBE0F901F9018951F920F920FB60F925F
:1001200011240F900FBE0F901F9018951F920F92E1
:100130000FB60F9211242F933F934F935F936F93BA
:100140007F938F939F93AF93BF93CF93DF93EF935F
:10015000FF93D8B3DF70C0916000CD27C0FF0BC004
:100160008091600080FD07C098B380E2892788BB3A
:1001700068B388E0ACD0C1FF0CC08091600081FD05
:1001800008C098B380E2892788BB68B366958CE085
:100190009ED0C2FF0DC08091600082FD09C098B35F
:1001A00080E2892788BB68B36695669580E18FD029
:1001B000C3FF09C08091600082FD05C098B380E252
:1001C000892788BB61DFD0936000FF91EF91DF91B9
:1001D000CF91BF91AF919F918F917F916F915F91DF
:1001E0004F913F912F910F900FBE0F901F90189538
:1001F00080EA88BB21E098B388B385FB882780F923
:100200008213F9CF9923BCF7C59800C000C0000045
:10021000C7980895C598C79A00C000C00000C59A45
:100220000895C598C79A00C000C00000C798C59A35
:100230000895C59AC79A00C000C00000C7980895E5
:10024000BD98689A00C000C00000689A00C000C055
:1002500000008FB19FEF9FB9BD9A817008958FB94B
:10026000C59A8EB1807F8EB9689A00C000C0000028
:10027000689A00C000C00000769BF6CF8FEF8FB960
:100280000895BD988EB1807F8EB9689A00C000C075
:100290000000689A00C000C00000769BF6CF8FB1C6
:1002A0009FEF9FB9BD9A089580E886BD16BC04D023
:1002B0006FEF82E40CD0FFCF12B883E389B988E0F6
:1002C0008AB986E283B98FB780688FBF089590910D
:1002D00061009111FCCFE2E6F0E08183608382E06F
:1002E00080936100559A08951F920F920FB60F9256
:1002F00011248F93EF93FF9380916100882369F01D
:10030000E0916100F0E0EF59FF4F80818CB980915E
:10031000610081508093610001C05598FF91EF9179
:100320008F910F900FBE0F901F901895F894FFCFEC
:00000001FF
