:1000000014C02CC02CC02AC029C028C027C026C0BC
:10001000A0C024C023C022C021C076C085C01EC09D
:100020001DC01CC01BC01AC019C011241FBECFEDBB
:10003000CDBF10E0A0E6B0E0EAE9F1E002C0059033
:100040000D92A236B107D9F720E0A2E6B0E001C0D8
:100050001D92A436B207E1F744D09DC0D1CF1F92C4
:100060000F920FB60F9211240F900FBE0F901F909A
:1000700018958FEF8FB980EA88BB87BB8AE28DB96C
:1000800080EF8EB90895C59800C000C00000C798E1
:100090000895C598C79A00C000C00000C59A089589
:1000A000BD98C79A00C0000088B300C00000C79880
:1000B000BD9A85FB882780F90895C79A689A9EB1F2
:1000C000907F9EB98FB9C59A689A00C000C00000A1
:1000D000689A00C000C00000769BF6CF8FEF8FB902
:1000E000089580E886BD16BC2FEF8DE399E421507A
:1000F00080409040E1F700C00000BBDFC4DF85E234
:10010000DCDFCEDFC6DFFFCF1F920F920FB60F925C
:1001100011248F9383B7887F83BF12BE8F910F9076
:100120000FBE0F901F9018951F920F920FB60F924F
:1001300011248F939F938CB7865F8CBF98B384E014
:10014000892788BB9F918F910F900FBE0F901F90B2
:1001500018951F920F920FB60F9211248F93EF9361
:10016000FF9380916000882369F0E0916000F0E0E7
:10017000EE59FF4F80818CB980916000815080934F
:10018000600001C05598FF91EF918F910F900FBEC5
:0A0190000F901F901895F894FFCF10
:02019A00020061
:00000001FF
