:1000000014C043C020C01FC01EC01DC01CC01BC0E8
:1000100068C119C018C08AC016C074C07DC013C0A2
:1000200012C011C010C00FC00EC011241FBECFEDF2
:10003000CDBF20E0A0E6B0E001C01D92A836B20717
:10004000E1F731D15DC1DCCFCF93C82FD0D080EDA7
:1000500005D1F5D08C2F02D1F2D0CF910895CF9356
:10006000DF93F2DFC4D081EDF9D0E9D009D1C82FF8
:10007000D0E0DC2FCC27D4D003D1C82BD9D0C9D025
:10008000CE01DF91CF91089508951F920F920FB680
:100090000F9211242F933F934F935F936F937F930E
:1000A0008F939F93AF93BF93EF93FF938BE3D7DF30
:1000B00020916400309165008217930729F0909396
:1000C0006500809364000DC08DE3C9DF2091660058
:1000D000309167008217930721F090936700809317
:1000E0006600FF91EF91BF91AF919F918F917F91AA
:1000F0006F915F914F913F912F910F900FBE0F9095
:100100001F9018951F920F920FB60F9211240F9007
:100110000FBE0F901F9018951F920F920FB60F925F
:1001200011240F900FBE0F901F9018951F920F92E1
:100130000FB60F9211242F933F934F935F936F93BA
:100140007F938F939F93AF93BF93CF93DF93EF935F
:10015000FF93D8B3DF70C0916000CD27C0FF0BC004
:100160008091600080FD07C098B380E2892788BB3A
:1001700068B388E0ABD0C1FF0CC098B380E2892798
:1001800088BB8091600081FD04C068B366958CE0F7
:100190009DD0C2FF0DC098B380E2892788BB8091B3
:1001A000600082FD05C068B36695669580E18ED0DB
:1001B000C3FF08C098B380E2892788BB80916000A4
:1001C00082FF62DFD0936000FF91EF91DF91CF91CA
:1001D000BF91AF919F918F917F916F915F914F915F
:1001E0003F912F910F900FBE0F901F90189580EAAE
:1001F00088BB21E098B388B385FB882780F98213F8
:10020000F9CF9923BCF7C59800C000C00000C7987B
:100210000895C598C79A00C000C00000C59A089507
:10022000C598C79A00C000C00000C798C59A089535
:10023000C59AC79A00C000C00000C7980895BD982D
:10024000689A00C000C00000689A00C000C00000AA
:100250008FB19FEF9FB9BD9A817008958FB9C59AEC
:100260008EB1807F8EB9689A00C000C00000689A85
:1002700000C000C00000769BF6CF8FEF8FB90895C5
:10028000BD988EB1807F8EB9689A00C000C0000012
:10029000689A00C000C00000769BF6CF8FB19FEF38
:1002A0009FB9BD9A089580E886BD16BC04D065E567
:1002B00085E50CD0FFCF12B883E389B988E08AB90D
:1002C00086E283B98FB780688FBF089590916100EF
:1002D000E2E6F0E08183608382E080936100559ADA
:1002E00008951F920F920FB60F9211248F93809151
:1002F000610055988F910F900FBE0F901F90189529
:04030000F894FFCF9F
:00000001FF
