:1000000014C021C043C01FC01EC01DC06DC01BC096
:1000100031C119C018C058C016C015C014C013C0D3
:1000200012C011C010C00FC00EC011241FBECFEDF2
:10003000CDBF20E0A0E6B0E001C01D92A436B2071B
:10004000E1F705D139C1DCCF93D040E06BE688E61B
:10005000E6D008958DD02FEF4FEF62E084E6E8D030
:100060002CE14CE766E084E6E3D044E061E084E61E
:10007000D6D085B7846085BF85B7886085BF8BB7CC
:1000800080688BBF8FB780688FBF08951F920F92D3
:100090000FB60F9211240F900FBE0F901F9018955E
:1000A00087B3807F87BBC49ABC9A80B58F6080BDC0
:1000B0008BB780628BBF10BE13BE89B7826089BFC9
:1000C0008FB780688FBF08951F920F920FB60F925F
:1000D00011248F9312BE83B7856083BF8F910F90D9
:1000E0000FBE0F901F9018951F920F920FB60F9290
:1000F00011242F933F938F939F9383B7887F83BF60
:1001000096B39F7080916000892780FF08C020917E
:10011000600020FD04C038B320E1232728BB81FF05
:1001200008C02091600021FD04C038B320E12327DE
:1001300028BB82FF08C02091600022FD04C038B3B4
:1001400020E1232728BB83FF08C08091600083FD46
:1001500004C028B380E1822788BB909360009F9100
:100160008F913F912F910F900FBE0F901F90189578
:100170008FEF8FB988B3806A88BB87B3806A87BBEB
:100180008AE28DB980EF8EB9089588B3806A88BB02
:1001900021E098B388B385FB882780F98213F9CFD3
:1001A0009923BCF7C59800C000C00000C798089507
:1001B000C598C79A00C000C00000C59A0895BD98B0
:1001C000689A00C000C00000689A00C000C000002B
:1001D0008FB19FEF9FB9BD9A817008958FB9C59A6D
:1001E0008EB1807F8EB9689A00C000C00000689A06
:1001F00000C000C00000769BF6CF8FEF8FB9089546
:10020000CF93DF93D82FC62FC0DF8D2F880FE6DF67
:10021000D6DF8C2FE3DFD3DFDF91CF910895CF932B
:10022000C42FEEDF8C2FDADFCADFC2DFCF91089553
:10023000CF93DF93D42FC22FE3DF8D2FCFDFBFDF2C
:100240008C2FCCDFBCDFB4DFDF91CF91089580E845
:1002500086BD16BC25DFFEDE02D0F6DEFFCF12B86B
:1002600083E389B988E08AB986E283B98FB7806869
:100270008FBF08951F920F920FB60F9211248F9384
:10028000EF93FF9380916100882369F0E091610012
:10029000F0E0EF59FF4F80818CB98091610081506F
:1002A0008093610001C05598FF91EF918F910F905D
:0C02B0000FBE0F901F901895F894FFCF20
:00000001FF
