S0120000436F6E74726F6C6C65722E73726563EE
S113000014C021C021C01FC01EC01DC01CC01BC005
S1130010B6C019C018C031C016C015C014C013C072
S113002012C011C010C00FC00EC011241FBECFEDEE
S1130030CDBF20E0A0E6B0E001C01D92A436B20717
S1130040E1F77FD0C1C0DCCF1F920F920FB60F92A1
S113005011240F900FBE0F901F90189587B3807FC7
S113006087BBC49ABC9A80B58F6080BD8BB7806211
S11300708BBF8FB780688FBF08951F920F920FB602
S11300800F9211242F933F934F935F936F937F931A
S11300908F939F93AF93BF93CF93DF93EF93FF938C
S11300A083B7887F83BFD6B3DF70C0916000CD274C
S11300B0C0FF0BC08091600080FF07C098B380E14F
S11300C0892788BB6BEB8BEB4DD0C1FF0BC08091B4
S11300D0600081FF07C098B380E1892788BB64E48E
S11300E084E440D0C2FF0BC08091600082FF07C04F
S11300F098B380E1892788BB60E080E033D0C3FFF8
S11301000BC08091600083FF07C098B380E189270A
S113011088BB69E989E926D0D0936000FF91EF910B
S1130120DF91CF91BF91AF919F918F917F916F910B
S11301305F914F913F912F910F900FBE0F901F90A1
S1130140189580E886BD16BC89DF01D0FFCF12B8B0
S113015083E389B988E08AB986E283B98FB7806876
S11301608FBF0895909161009111FCCFE2E6F0E019
S11301708183608382E080936100559A08951F9281
S11301800F920FB60F9211248F93EF93FF938091E8
S11301906100882361F0E0916100F0E0EF59FF4FC6
S11301A080818CB98091610081508093610080913D
S11301B06100811101C05598FF91EF918F910F90CB
S10F01C00FBE0F901F901895F894FFCF0D
S9030000FC
