:1000000014C02DC036C02AC029C028C027C026C0B1
:100010007EC024C023C022C021C052C066C01EC002
:100020001DC01CC01BC01AC019C011241FBECFEDBB
:10003000CDBF10E0A0E6B0E0E6E5F1E002C005903B
:100040000D92A236B107D9F720E0A2E6B0E001C0D8
:100050001D92A436B207E1F716D07BC0D1CF1F9214
:100060000F920FB60F9211240F900FBE0F901F909A
:1000700018951F920F920FB60F9211240F900FBE7A
:100080000F901F90189580E886BD16BC2FEF83ED6A
:1000900090E3215080409040E1F700C0000001D083
:1000A000FFCFBA9A10BE81E083BF89E086BF80EAA5
:1000B0008CBF89B7816089BF8FB780688FBF089573
:1000C0001F920F920FB60F9211248F939F9386B7B2
:1000D000865F86BF98B384E0892788BB9F918F9104
:1000E0000F900FBE0F901F9018951F920F920FB692
:1000F0000F9211248F9380B78F7380BF89E086BFE2
:1001000012BE8F910F900FBE0F901F9018951F92E7
:100110000F920FB60F9211248F93EF93FF9380915C
:100120006000882369F0E0916000F0E0EE59FF4F35
:1001300080818CB98091600081508093600001C003
:100140005598FF91EF918F910F900FBE0F901F90D8
:060150001895F894FFCFA2
:020156000200A5
:00000001FF
