S0120000436F6E74726F6C6C65722E73726563EE
S113000014C032C020C01FC01EC01DC01CC01BC0F5
S113001036C119C018C05BC016C0F6C005C113C0F4
S113002012C011C010C00FC00EC011241FBECFEDEE
S1130030CDBF20E0A0E6B0E001C01D92A436B20717
S1130040E1F7DAD02BC1DCCF85B7816085BF85B7F6
S1130050826085BF8BB780648BBF8FB780688FBF8A
S1130060089586D0F1DF08951F920F920FB60F9274
S113007011240F900FBE0F901F901895CF93C82F87
S113008081D088ECA7D097D08C2FA4D094D0CF91D6
S11300900895CF93C62FF2DF8C2F9CD08CD084D0C0
S11300A0CF9108956FEF82E0F4DF6FEF83E0F1DF2B
S11300B0089587B3807F87BBBD9A80B58F6080BD6C
S11300C08BB780628BBF8FB780688FBF08951F92F4
S11300D00F920FB60F9211242F933F934F935F9378
S11300E06F937F938F939F93AF93BF93CF93DF933C
S11300F0EF93FF93D8B3DF70C0916000CD27C0FFAA
S113010007C098B380E2892788BB68B388E0ACD085
S1130110C1FF08C098B380E2892788BB68B366959D
S11301208CE0A2D0C2FF09C098B380E2892788BBC3
S113013068B36695669580E197D0C3FF04C098B311
S113014080E2892788BBD0936000FF91EF91DF9113
S1130150CF91BF91AF919F918F917F916F915F915B
S11301604F913F912F910F900FBE0F901F901895B4
S11301708FEF8FB980EA88BB87BB8AE28DB980EFA5
S11301808EB9089580EA88BB21E098B388B385FBD3
S1130190882780F98213F9CF9923BCF7C59800C04A
S11301A000C00000C7980895C598C79A00C000C051
S11301B00000C59A0895BD98689A00C000C0000068
S11301C0689A00C000C000008FB19FEF9FB9BD9A2C
S11301D0817008958FB9C59A8EB1807F8EB9689A5F
S11301E000C000C00000689A00C000C00000769BF8
S11301F0F6CF8FEF8FB9089580E886BD16BC31DF46
S113020028D050DF56DFFFCF1F920F920FB60F9208
S113021011248F9383B7887F83BF12BE8F910F9071
S11302200FBE0F901F9018951F920F920FB60F924A
S113023011248F939F938CB7865F8CBF98B384E00F
S1130240892788BB9F918F910F900FBE0F901F90AD
S1130250189512B883E389B988E08AB986E283B92C
S11302608FB780688FBF089590916100E2E6F0E057
S11302708183608382E080936100559A08951F9280
S11302800F920FB60F9211248F93809161005598AD
S11302908F910F900FBE0F901F901895F894FFCF79
S9030000FC
