S0120000436F6E74726F6C6C65722E73726563EE
S113000014C083C08CC02AC029C028C027C016C110
S1130010E6C024C023C022C021C0B0C01FC01EC07F
S11300201DC01CC01BC01AC019C011241FBECFEDB7
S1130030CDBF10E0A0E6B0E0EAE9F2E002C005902E
S11300400D92A436B107D9F720E0A4E6B0E001C0D0
S11300501D92A836B207E1F785D01DC1D1CFE82F94
S1130060F0E03A97CF01880F991F880F991FE81B7A
S1130070F90B22AD81E090E002C0880F991F6A95C8
S1130080E2F7982F9095922392AF93AD982B93AF6C
S113009092AD982B92AF93AD892B83AF0895E82F3F
S11300A0F0E03A97CF01880F991F880F991FE81B3A
S11300B0F90B22AD81E090E002C0880F991F6A9588
S11300C0E2F7982F9095292322AF23AD292323AF5C
S11300D022AD822B82AF83AD982393AF089590E035
S11300E00A979C01220F331F220F331FFC01E21BCE
S11300F0F30B21AD81E090E002C0880F991F6A954F
S1130100E2F730E08223932308951F920F920FB6F3
S11301100F9211240F900FBE0F901F9018951F92ED
S11301200F920FB60F9211240F900FBE0F901F90D5
S1130130189580EA88BB87BB8FEF8FB98AE28DB9A7
S113014080EF8EB908958EB1807F8EB98BE28DB920
S1130150C79BFECF00C000008DB9739BF8CF00C0D1
S113016000000895E6DF2FE78AE196E02150804001
S11301709040E1F700C00000E6DFFFCF1F920F922E
S11301800FB60F9211242F933F934F935F936F9366
S11301907F938F939F93AF93BF93EF93FF9367E006
S11301A070E08BE09CDF892B29F067E070E08BE046
S11301B076DF04C067E070E08BE051DFFF91EF91E0
S11301C0BF91AF919F918F917F916F915F914F916B
S11301D03F912F910F900FBE0F901F9018951F9273
S11301E00F920FB60F9211248F939F93EF93FF9367
S11301F090916500809164009817B1F0809164003B
S113020090E0019681709078992324F401978E6F81
S11302109F6F0196E0916400F0E0E05AFF4F9081F7
S11302209CB98093640001C05598FF91EF919F9110
S11302308F910F900FBE0F901F9018951F920F92E1
S11302400FB60F9211242F938F939F93EF93FF93E5
S11302508091670090E0019681709078992324F44E
S113026001978E6F9F6F019620916600281749F0C1
S1130270E0916700F0E09CB1EE59FF4F90838093CA
S11302806700FF91EF919F918F912F910F900FBE77
S10D02900F901F901895F894FFCF0B
S107029A787878787C
S9030000FC
