:1000000014C05DC0A5C01FC01EC041C0E8C01BC059
:1000100049C219C018C00DC116C015C014C013C004
:1000200012C011C010C00FC00EC011241FBECFEDF2
:10003000CDBF20E0A0E6B0E001C01D92A537B20719
:10004000E1F7FED15EC2DCCF48D140E06BE688E646
:10005000B2D140E06CE188E6AED148E069E188E6E3
:10006000AAD140E167E388E6A6D141E068E388E6EB
:10007000A2D1EDD185B7816085BF85B7826085BF8C
:100080008BB780648BBF8FB780688FBF08951F9236
:100090000F920FB60F9211248F93809160008F5FA3
:1000A000809360008F910F900FBE0F901F90189556
:1000B0006BE388E6ADD16DE388E6AAD108951F927F
:1000C0000F920FB60F9211242F933F934F935F938C
:1000D0006F937F938F939F93AF93BF93EF93FF9310
:1000E000E7DFFF91EF91BF91AF919F918F917F914A
:1000F0006F915F914F913F912F910F900FBE0F9095
:100100001F901895EAD02FEF4FEF62E084E65CD1A4
:100110002CE14CE766E084E657D1C498BC9A10BE47
:1001200013BE89B7826089BF85B785BF85B78860F0
:1001300085BF8BB780688BBF8FB780688FBF0895EE
:10014000D9D088E115D103D14ED1F9D0E7D00895A7
:100150001F920F920FB60F9211242F933F934F933C
:100160005F936F937F938F939F93AF93BF93EF931F
:10017000FF9303B602FE13C003B600FE10C083B7A0
:100180008A7F83BFC49820E040E064E084E61CD10D
:100190002CE14CE766E084E617D1D2DF0FC012BE37
:1001A00083B7856083BF20E040E066E084E60CD141
:1001B0002DEF4DE764E084E607D1C2DFFF91EF91B8
:1001C000BF91AF919F918F917F916F915F914F916F
:1001D0003F912F910F900FBE0F901F9018951F9277
:1001E0000F920FB60F9211248F939F93809161000D
:1001F000813139F498B380E1892788BB109261007E
:1002000003C08F5F809361009F918F910F900FBE0D
:100210000F901F90189587B3807F87BB80B58F6044
:1002200080BD8BB780628BBF8FB780688FBF0FD1C7
:1002300008951F920F920FB60F9211242F933F93A0
:100240004F935F936F937F938F939F93AF93BF93DE
:10025000CF93DF93EF93FF93D6B3DF70C09162002B
:10026000CD27C0FF07C08091620080FF03C06BEB09
:100270008BEB11D1C1FF07C08091620081FF03C0E9
:1002800064E484E408D1C2FF0AC08091620082FF66
:1002900006C061E181E1FFD061E181E1FCD0C3FFF3
:1002A00007C08091620083FF03C067E787E7F3D050
:1002B000D0936200FF91EF91DF91CF91BF91AF9109
:1002C0009F918F917F916F915F914F913F912F916E
:1002D0000F900FBE0F901F9018958FEF8FB988B3B6
:1002E000806A88BB87B3806A87BB8AE28DB980EF5A
:1002F0008EB9089588B3806A88BB21E098B388B32B
:1003000085FB882780F98213F9CF9923BCF7C5981C
:1003100082E08A95F1F70000C7980895C598C79ABA
:1003200082E08A95F1F70000C59A0895C598C79AAA
:1003300082E08A95F1F70000C798C59A0895C59A9A
:10034000C79A82E08A95F1F70000C7980895BD9892
:10035000689A82E08A95F1F70000689A82E08A95AF
:10036000F1F700008FB19FEF9FB9BD9A817008959A
:100370008FB9C59A8EB1807F8EB9689A82E08A95CE
:10038000F1F70000689A82E08A95F1F70000769B09
:10039000F4CF8FEF8FB90895CF93DF93D82FC62F67
:1003A000A9DF8D2F880FE4DFD2DF8C2FE1DFCFDFD5
:1003B000DF91CF910895CF93C42FEEDF8C2FD8DF3C
:1003C000C6DFACDFCF910895CF93DF93D42FC22F38
:1003D000E3DF8D2FCDDFBBDF8C2FCADFB8DF9EDFE1
:1003E000DF91CF910895BD988EB1807F8EB9689AC4
:1003F00082E08A95F1F70000689A82E08A95F1F729
:100400000000769BF4CF8FB19FEF9FB9BD9A0895FE
:10041000CF93DF93C82FC0DF6DDF8C2F880F8160F3
:10042000A7DF95DFE0DFC82FD0E0DC2FCC277EDF11
:10043000DADFC82B84DF72DFCE01DF91CF91089520
:1004400080E886BD16BCE7DE5DDEFEDDFFCF12B8BC
:1004500087E689B988E08AB986E283B98FB7806870
:100460008FBF08952091640030E02F5F3F4F2F70C1
:100470003078332334F421503109206F3F6F2F5FE0
:100480003F4FE0916400F0E0EB59FF4F80832093F1
:100490006400559A0895CF93C62FE4DF8C2FE2DFD6
:1004A000CF9108951F920F920FB60F9211248F9340
:1004B0009F93EF93FF93909163008091640098174E
:1004C000B1F08091630090E001968F70907899234D
:1004D00024F40197806F9F6F0196E0916300F0E034
:1004E000EB59FF4F90819CB98093630001C05598F0
:1004F000FF91EF919F918F910F900FBE0F901F90E2
:060500001895F894FFCFEE
:00000001FF
