:1000000014C04EC081C12AC064C328C0C4C126C068
:100010002CC324C023C0E8C121C020C01FC01EC003
:100020001DC01CC01BC01AC019C011241FBECFEDBB
:10003000CDBF10E0A0E6B0E0E6E9F7E002C0059031
:100040000D92A636B107D9F720E0A6E6B0E001C0D0
:100050001D92AC38B207E1F7C2D29BC3D1CF40E0CA
:100060006BE688E677D240E06CE188E673D248E040
:1000700069E188E66FD240E167E388E66BD241E050
:1000800068E388E667D285B7816085BF85B78260FF
:1000900085BF8BB780648BBF8FB780688FBF089593
:1000A0001F920F920FB60F9211248F929F92AF92D0
:1000B000BF92CF92DF92EF92FF920F931F932F93F5
:1000C0003F934F935F936F937F938F939F93AF93E0
:1000D000BF93CF93DF93EF93FF936BE388E667D2F1
:1000E0002091690030916A00820F931FCFE7D0E022
:1000F0009B838A836DE388E65AD220916700309112
:100100006800820F931F90937E0080937D008A8108
:100110009B81C397D4F480918100909182008E3CA2
:100120009F4F9CF080917D0090917E00C3976CF46E
:1001300080917D0090917E008E3C9F4F34F08091A5
:1001400066008F5F8093660002C010926600809107
:100150006600803141F410927A001092790010927A
:1001600076001092750007E710E0F80120813181D8
:100170000F2EFFE78F2EF0E09F2EF02DF40140812F
:1001800051818281938160817181861B970B959546
:100190008795840F951F820F931FF80193838283A5
:1001A000C3E7D0E0288139810F2EFBE7AF2EF0E0C6
:1001B000BF2EF02DF50140815181828193816081B4
:1001C0007181861B970B95958795840F951F820FDC
:1001D000931F9B838A830F2EFFE6CF2EF0E0DF2E46
:1001E000F02DF60120813181F80140815181828119
:1001F000938160817181861B970B95958795840FFC
:10020000951F820F931FF601938382830F2EFBE6C7
:10021000EF2EF0E0FF2EF02DF70120813181488193
:1002200059818A819B8168817981861B970B95957D
:100230008795840F951F280F391F3383228362818E
:100240007381F60182819381E8D1F40182819381E7
:1002500091838083F5018281938191838083F8016A
:1002600082819381918380838A819B819983888312
:10027000F6018281938191838083F701828193814A
:1002800091838083FF91EF91DF91CF91BF91AF91E7
:100290009F918F917F916F915F914F913F912F919E
:1002A0001F910F91FF90EF90DF90CF90BF90AF9094
:1002B0009F908F900F900FBE0F901F9018952FEF6B
:1002C0004FEF62E084E64FD12CE14CE766E084E634
:1002D0004AD1C498BC9A10BE13BE89B7826089BF48
:1002E00085B785BF85B7886085BF8BB780688BBFB2
:1002F0008FB780688FBF0895CCD088E108D1F6D041
:1003000041D1ECD0DAD008951F920F920FB60F9220
:1003100011242F933F934F935F936F937F938F930A
:100320009F93AF93BF93EF93FF9303B602FE13C067
:1003300003B600FE10C083B78A7F83BFC49820E055
:1003400040E064E084E60FD12CE14CE766E084E60F
:100350000AD1D2DF0FC012BE83B7856083BF20E011
:1003600040E066E084E6FFD02DEF4DE764E084E6F0
:10037000FAD0C2DFFF91EF91BF91AF919F918F9122
:100380007F916F915F914F913F912F910F900FBE91
:100390000F901F9018951F920F920FB60F92112475
:1003A0008F939F9380918300813139F498B380E1DA
:1003B000892788BB1092830003C08F5F80938300DE
:1003C0009F918F910F900FBE0F901F90189587B33C
:1003D000807F87BB80B58F6080BD8BB780628BBF0D
:1003E0008FB780688FBF08951F920F920FB60F923C
:1003F00011242F933F934F935F936F937F938F932A
:100400009F93AF93BF93CF93DF93EF93FF93D6B3B5
:10041000DF70C0918400CD27C0FF06C080918400AA
:1004200080FF02C080E000D1C1FF06C0809184003F
:1004300081FF02C081E0F8D0C2FF06C08091840035
:1004400082FF02C082E0F0D0C3FD80918400D0938F
:100450008400FF91EF91DF91CF91BF91AF919F9178
:100460008F917F916F915F914F913F912F910F905D
:100470000FBE0F901F9018958FEF8FB988B3806AC9
:1004800088BB87B3806A87BB8AE28DB980EF8EB95B
:10049000089588B3806A88BB21E098B388B385FB50
:1004A000882780F98213F9CF9923BCF7C59882E099
:1004B0008A95F1F70000C7980895C598C79A82E019
:1004C0008A95F1F70000C59A0895C598C79A82E009
:1004D0008A95F1F70000C798C59A0895C59AC79AFA
:1004E00082E08A95F1F70000C7980895BD98689A50
:1004F00082E08A95F1F70000689A82E08A95F1F728
:1005000000008FB19FEF9FB9BD9A817008958FB998
:10051000C59A8EB1807F8EB9689A82E08A95F1F78C
:100520000000689A82E08A95F1F70000769BF4CF8C
:100530008FEF8FB90895CF93DF93D82FC62FA9DF00
:100540008D2F880FE4DFD2DF8C2FE1DFCFDFDF914B
:10055000CF910895CF93C42FEEDF8C2FD8DFC6DF65
:10056000ACDFCF910895CF93DF93D42FC22FE3DF79
:100570008D2FCDDFBBDF8C2FCADFB8DF9EDFDF9191
:10058000CF910895BD988EB1807F8EB9689A82E030
:100590008A95F1F70000689A82E08A95F1F70000E9
:1005A000769BF4CF8FB19FEF9FB9BD9A0895CF93FB
:1005B000DF93C82FC0DF6DDF8C2F880F8160A7DF2E
:1005C00095DFE0DFC82FD0E0DC2FCC277EDFDADF3D
:1005D000C82B84DF72DFCE01DF91CF91089580E8D0
:1005E00086BD16BC49DF04D0F2DE69DE38DDFFCF00
:1005F00012B889E189B988E08AB986E083B91FBC5D
:100600008AE08EBD89B7806489BF87E28BBD80E1B7
:100610008ABD8FB780688FBF0895E0E6F0E08083E1
:10062000918362837383089521E030E002C0220F3A
:10063000331F8A95E2F7209364000895382F809144
:100640008B0090E0019665E070E07CD0282F9091BF
:100650008A002917E1F3E0918B00F0E0EB57FF4FA0
:10066000308380938B00559A08951F920F920FB696
:100670000F9211245F936F937F938F939F93AF9308
:10068000BF93EF93FF9390918A0080918B0098170E
:1006900089F080918A0090E0019665E070E052D088
:1006A000E0918A00F0E0EB57FF4F90819CB9809376
:1006B0008A0001C05598FF91EF91BF91AF919F9132
:1006C0008F917F916F915F910F900FBE0F901F9050
:1006D00018951F920F920FB60F9211242F933F93EC
:1006E0004F935F936F937F938F939F93AF93BF933A
:1006F000CF93DF93EF93FF93C0E0D0E0FE01E05A89
:10070000FF4F80819BDF2196C530D105B9F7E0E628
:10071000F0E010828FEF8183828383838483FF9153
:10072000EF91DF91CF91BF91AF919F918F917F9189
:100730006F915F914F913F912F910F900FBE0F904E
:100740001F90189597FB072E16F4009406D077FD9E
:1007500008D00BD007FC05D03EF4909581959F4FB3
:100760000895709561957F4F0895AA1BBB1B51E1B9
:1007700007C0AA1FBB1FA617B70710F0A61BB70B11
:10078000881F991F5A95A9F780959095BC01CD01B6
:060790000895F894FFCF6C
:0607960000FFFFFFFF0061
:00000001FF
