S0120000436F6E74726F6C6C65722E73726563EE
S113000014C041C09FC01FC01EC065C0E2C01BC059
S11300102CC219C018C007C116C015C014C013C023
S113002012C011C010C00FC00EC011241FBECFEDEE
S1130030CDBF20E0A0E6B0E001C01D92A636B20715
S1130040E1F7F8D137C2DCCF42D140E06BE688E675
S1130050ACD140E06CE188E6A8D140E069E188E6F3
S1130060A4D140E067E388E6A0D1EBD185B78160F5
S113007085BF85B7826085BF8BB780648BBF8FB720
S113008080688FBF08951F920F920FB60F921124AC
S11300902F933F934F935F936F937F938F939F938C
S11300A0AF93BF93EF93FF936BE388E6ABD1682FD5
S11300B0892FD2D1FF91EF91BF91AF919F918F91F1
S11300C07F916F915F914F913F912F910F900FBE50
S11300D00F901F9018951F920F920FB60F92112434
S11300E08F93809160008F5F809360008F910F9059
S11300F00FBE0F901F901895EAD02FEF4FEF62E0DC
S113010084E65CD12CE14CE766E084E657D1C498E0
S1130110BC9A10BE13BE89B7826089BF85B785BFFC
S113012085B7886085BF8BB780688BBF8FB78068C1
S11301308FBF0895D9D088E115D103D14ED1F9D01C
S1130140E7D008951F920F920FB60F9211242F93A8
S11301503F934F935F936F937F938F939F93AF934B
S1130160BF93EF93FF9303B602FE13C003B600FEE2
S113017010C083B78A7F83BFC49820E040E064E066
S113018084E61CD12CE14CE766E084E617D1D2DF8B
S11301900FC012BE83B7856083BF20E040E066E0F5
S11301A084E60CD12DEF4DE764E084E607D1C2DF8D
S11301B0FF91EF91BF91AF919F918F917F916F913B
S11301C05F914F913F912F910F900FBE0F901F9011
S11301D018951F920F920FB60F9211248F939F932D
S11301E080916100813139F498B380E1892788BB1B
S11301F01092610003C08F5F809361009F918F9183
S11302000F900FBE0F901F90189587B3807F87BB08
S113021080B58F6080BD8BB780628BBF8FB78068DD
S11302208FBF0FD108951F920F920FB60F92112412
S11302302F933F934F935F936F937F938F939F93EA
S1130240AF93BF93CF93DF93EF93FF93D6B3DF7056
S1130250C0916200CD27C0FF07C08091620080FF7B
S113026003C06BEB8BEBF8D0C1FF07C08091620039
S113027081FF03C064E484E4EFD0C2FF07C080912F
S1130280620082FF03C061E181E1E6D0C3FF0AC0DE
S11302908091620083FF06C06BE388E6B3D0682FC9
S11302A0892FDAD0D0936200FF91EF91DF91CF9143
S11302B0BF91AF919F918F917F916F915F914F917A
S11302C03F912F910F900FBE0F901F9018958FEFB5
S11302D08FB988B3806A88BB87B3806A87BB8AE298
S11302E08DB980EF8EB9089588B3806A88BB21E008
S11302F098B388B385FB882780F98213F9CF9923B3
S1130300BCF7C59882E08A95F1F70000C798089574
S1130310C598C79A82E08A95F1F70000C59A0895B6
S1130320C598C79A82E08A95F1F70000C798C59AE4
S11303300895C59AC79A82E08A95F1F70000C79894
S11303400895BD98689A82E08A95F1F70000689A4A
S113035082E08A95F1F700008FB19FEF9FB9BD9AB3
S1130360817008958FB9C59A8EB1807F8EB9689ACD
S113037082E08A95F1F70000689A82E08A95F1F7A5
S11303800000769BF4CF8FEF8FB90895CF93DF935E
S1130390D82FC62FA9DF8D2F880FE4DFD2DF8C2F53
S11303A0E1DFCFDFDF91CF910895CF93C42FEEDF4C
S11303B08C2FD8DFC6DFACDFCF910895CF93DF93C6
S11303C0D42FC22FE3DF8D2FCDDFBBDF8C2FCADF0D
S11303D0B8DF9EDFDF91CF910895BD988EB1807F05
S11303E08EB9689A82E08A95F1F70000689A82E0F3
S11303F08A95F1F70000769BF4CF8FB19FEF9FB9F8
S1130400BD9A0895CF93DF93C82FC0DF6DDF8C2F83
S1130410880F8160A7DF95DFE0DFC82FD0E0DC2FF5
S1130420CC277EDFDADFC82B84DF72DFCE01DF91D9
S1130430CF91089580E886BD16BCE7DE5DDE04DE5C
S1130440FFCF12B887E689B988E08AB986E283B912
S11304508FB780688FBF0895E4E6F0E081836083FE
S113046082E080936300559A08951F920F920FB60D
S11304700F9211248F93EF93FF938091630088234D
S113048061F0E0916300F0E0ED59FF4F80818CB999
S11304908091630081508093630080916300811197
S11304A001C05598FF91EF918F910F900FBE0F905F
S10B04B01F901895F894FFCF8A
S9030000FC
