S0120000436F6E74726F6C6C65722E73726563EE
S113000014C022C07DC01FC01EC043C0C0C01BC0DE
S1130010F7C119C018C0E4C016C015C014C013C07D
S113002012C011C010C00FC00EC011241FBECFEDEE
S1130030CDBF20E0A0E6B0E001C01D92A636B20715
S1130040E1F7BFD102C2DCCF1F920F920FB60F921D
S113005011242F933F934F935F936F937F938F93C9
S11300609F93AF93BF93EF93FF936BE388E691D194
S1130070FF91EF91BF91AF919F918F917F916F917C
S11300805F914F913F912F910F900FBE0F901F9052
S113009018951F920F920FB60F9211248F9380918F
S11300A060008F5F809360008F910F900FBE0F9060
S11300B01F901895E6D02FEF4FEF62E084E647D10A
S11300C02CE14CE766E084E642D185B785BF85B76D
S11300D0886085BF8BB780688BBFC498BC9A10BEFC
S11300E013BE89B7826089BF8FB780688FBF0895B8
S11300F0D5D088E10BD1FBD039D1F2D0E2D008952C
S11301001F920F920FB60F9211242F933F934F9388
S11301105F936F937F938F939F93AF93BF93EF936B
S1130120FF9303B602FE13C003B600FE10C083B7EC
S11301308A7F83BFC49820E040E064E084E607D16E
S11301402CE14CE766E084E602D1D2DF0FC012BE98
S113015083B7856083BF20E040E066E084E6F7D0A3
S11301602DEF4DE764E084E6F2D0C2DFFF91EF911A
S1130170BF91AF919F918F917F916F915F914F91BB
S11301803F912F910F900FBE0F901F9018951F92C3
S11301900F920FB60F9211248F939F938091610059
S11301A0813139F498B380E1892788BB10926100CA
S11301B003C08F5F809361009F918F910F900FBE5A
S11301C00F901F90189587B3807F87BB80B58F6091
S11301D080BD8BB780628BBF8FB780688FBF089557
S11301E01F920F920FB60F9211242F933F934F93A8
S11301F05F936F937F938F939F93AF93BF93CF93AB
S1130200DF93EF93FF93D6B3DF70C0916200CD27E5
S1130210C0FF07C08091620080FF03C06BEB8BEBD3
S1130220E2D0C1FF07C08091620081FF03C064E493
S113023084E4D9D0C2FF07C08091620082FF03C06A
S113024060E080E0D0D0C3FF07C08091620083FFEC
S113025003C069E989E9C7D0D0936200FF91EF91A7
S1130260DF91CF91BF91AF919F918F917F916F91CA
S11302705F914F913F912F910F900FBE0F901F9060
S113028018958FEF8FB988B3806A88BB87B3806A6B
S113029087BB8AE28DB980EF8EB9089588B3806AEE
S11302A088BB21E098B388B385FB882780F9821343
S11302B0F9CF9923BCF7C59800C000C00000C798C7
S11302C00895C598C79A00C000C00000C59A089553
S11302D0C598C79A00C000C00000C798C59A089581
S11302E0C59AC79A00C000C00000C7980895BD9879
S11302F0689A00C000C00000689A00C000C00000F6
S11303008FB19FEF9FB9BD9A817008958FB9C59A37
S11303108EB1807F8EB9689A00C000C00000689AD0
S113032000C000C00000769BF6CF8FEF8FB9089510
S1130330CF93DF93D82FC62FB1DF8D2F880FE6DF41
S1130340D6DF8C2FE3DFD3DFDF91CF910895CF93F6
S1130350DF93D42FC22FECDF8D2FD8DFC8DF8C2F93
S1130360D5DFC5DFAEDFDF91CF910895BD988EB1A3
S1130370807F8EB9689A00C000C00000689A00C0EF
S113038000C00000769BF6CF8FB19FEF9FB9BD9A56
S11303900895CF93DF93C82FCBDF80DF8C2F880F96
S11303A08160B4DFA4DFE2DFC82FD0E0DC2FCC27EC
S11303B08FDFDCDFC82B94DF84DFCE01DF91CF91A8
S11303C0089580E886BD16BCFEDE74DE01D0FFCF42
S11303D012B887E689B988E08AB986E283B98FB70B
S11303E080688FBF0895909163009111FCCFE4E67B
S11303F0F0E08183608382E080936300559A0895DE
S11304001F920F920FB60F9211248F93EF93FF93C5
S113041080916300882361F0E0916300F0E0ED597E
S1130420FF4F80818CB98091630081508093630079
S113043080916300811101C05598FF91EF918F91D4
S11104400F900FBE0F901F901895F894FFCFE9
S9030000FC
