S0120000436F6E74726F6C6C65722E73726563EE
S113000014C074C08CC12AC026C328C0CFC126C066
S113001077C324C023C0F5C121C020C01FC01EC0A7
S11300201DC01CC01BC01AC019C011241FBECFEDB7
S1130030CDBF10E0A0E6B0E0EAEBF7E002C0059027
S11300400D92A636B107D9F720E0A6E6B0E001C0CC
S11300501D92AB39B207E1F7CFD2ADC3D1CFEBE6F6
S1130060F0E01382128211821082EFE6F0E0138234
S1130070128211821082E3E7F0E01382128211826D
S11300801082E7E7F0E01382128211821082EBE71C
S1130090F0E01382128211821082EFE7F0E0138203
S11300A0128211821082089540E06BE688E65FD2E6
S11300B040E06CE188E65BD248E069E188E657D22B
S11300C040E167E388E653D241E068E388E64FD233
S11300D0C6DF85B7816085BF85B7826085BF8BB772
S11300E080648BBF8FB780688FBF08951F920F9273
S11300F00FB60F9211242F933F934F935F936F93F7
S11301007F938F939F93AF93BF93CF93DF93EF939B
S1130110FF936BE388E658D22091690030916A001E
S1130120820F931FCFE7D0E09B838A836DE388E639
S11301304BD22091670030916800820F931F9093F7
S11301407E0080937D008A819B81C397D4F4809143
S11301508100909182008E3C9F4F9CF080917D00A5
S113016090917E00C3976CF480917D0090917E0005
S11301708E3C9F4F34F0809166008F5F80936600C1
S113018066C010926600A7E7B0E02D913C911197EC
S1130190EFE7F0E040815181828193816081718138
S11301A0861B970B95958795840F951F820F931F38
S11301B013969C938E931297E3E7F0E020813181AC
S11301C0CBE7D0E0488159818A819B81688179811C
S11301D0861B970B95958795840F951F820F931F08
S11301E093838283CFE6D0E0288139814D915C915D
S11301F0119712968D919C9113976D917C91861B0A
S1130200970B95958795840F951F820F931F9B835A
S11302108A83ABE6B0E02D913C91119740815181E6
S11302208281938160817181861B970B9595879557
S1130230840F951F820F931F13969C938E9312978E
S113024012966D917C9113978A819B81F3D1809151
S11302506600883041F410927A001092790010926E
S1130260760010927500EFE7F0E08281938191832C
S11302708083EBE7F0E08281938191838083E7E7D9
S1130280F0E08281938191838083E3E7F0E08281CF
S1130290938191838083EFE6F0E08281938191835F
S11302A08083EBE6F0E08281938191838083FF91E8
S11302B0EF91DF91CF91BF91AF919F918F917F91FA
S11302C06F915F914F913F912F910F900FBE0F90BF
S11302D01F9018952FEF4FEF62E084E651D12CE187
S11302E04CE766E084E64CD1C498BC9A10BE13BEB9
S11302F089B7826089BF85B785BF85B7886085BFA8
S11303008BB780688BBF8FB780688FBF0895CED0BE
S113031088E10AD1F8D043D1EED0DCD008951F9201
S11303200F920FB60F9211242F933F934F935F9325
S11303306F937F938F939F93AF93BF93EF93FF93A9
S113034003B602FE13C003B600FE10C083B78A7F53
S113035083BFC49820E040E064E084E611D12CE13E
S11303604CE766E084E60CD1D2DF0FC012BE83B73F
S1130370856083BF20E040E066E084E601D12DEF94
S11303804DE764E084E6FCD0C2DFFF91EF91BF91BA
S1130390AF919F918F917F916F915F914F913F9119
S11303A02F910F900FBE0F901F9018951F920F92D0
S11303B00FB60F9211248F939F9380918300813104
S11303C039F498B380E1892788BB1092830005C073
S11303D0809183008F5F809383009F918F910F9012
S11303E00FBE0F901F90189587B3807F87BB80B591
S11303F08F6080BD8BB780628BBF8FB780688FBFE3
S113040008951F920F920FB60F9211242F933F93CA
S11304104F935F936F937F938F939F93AF93BF9308
S1130420CF93DF93EF93FF93D6B3DF70C091840033
S1130430CD27C0FF06C08091840080FF02C080E009
S113044000D1C1FF06C08091840081FF02C081E019
S1130450F8D0C2FF06C08091840082FF02C082E00F
S1130460F0D0C3FD80918400D0938400FF91EF917C
S1130470DF91CF91BF91AF919F918F917F916F91B8
S11304805F914F913F912F910F900FBE0F901F904E
S113049018958FEF8FB988B3806A88BB87B3806A59
S11304A087BB8AE28DB980EF8EB9089588B3806ADC
S11304B088BB21E098B388B385FB882780F9821331
S11304C0F9CF9923BCF7C59882E08A95F1F700002B
S11304D0C7980895C598C79A82E08A95F1F70000F5
S11304E0C59A0895C598C79A82E08A95F1F70000E5
S11304F0C798C59A0895C59AC79A82E08A95F1F774
S11305000000C7980895BD98689A82E08A95F1F72B
S11305100000689A82E08A95F1F700008FB19FEF9E
S11305209FB9BD9A817008958FB9C59A8EB1807FA5
S11305308EB9689A82E08A95F1F70000689A82E0A1
S11305408A95F1F70000769BF4CF8FEF8FB9089569
S1130550CF93DF93D82FC62FA9DF8D2F880FE4DF29
S1130560D2DF8C2FE1DFCFDFDF91CF910895CF93DE
S1130570C42FEEDF8C2FD8DFC6DFACDFCF91089518
S1130580CF93DF93D42FC22FE3DF8D2FCDDFBBDFDB
S11305908C2FCADFB8DF9EDFDF91CF910895BD981D
S11305A08EB1807F8EB9689A82E08A95F1F7000057
S11305B0689A82E08A95F1F70000769BF4CF8FB1B8
S11305C09FEF9FB9BD9A0895CF93DF93C82FC0DFE3
S11305D06DDF8C2F880F8160A7DF95DFE0DFC82FE8
S11305E0D0E0DC2FCC277EDFDADFC82B84DF72DF9C
S11305F0CE01DF91CF91089580E886BD16BC49DF16
S113060004D068DEF1DE50DDFFCF12B889E189B98C
S113061088E08AB986E083B91FBC8AE08EBD89B7B9
S1130620806489BF87E28BBD80E18ABD8FB7806813
S11306308FBF0895E0E6F0E0808391836283738343
S1130640089521E030E002C0220F331F8A95E2F7BB
S11306502093640008951F920F920FB60F921124F5
S11306602F933F934F935F936F937F938F939F93B6
S1130670AF93BF93EF93FF9380919A0090E0059618
S113068064E170E071D0AC01282F90919900291792
S1130690E1F39A013327E0E6F0E08081D901A05824
S11306A0BF4F8C938181D901AF57BF4F8C93828107
S11306B0D901AE57BF4F8C938381D901AD57BF4F3A
S11306C08C938481D901AC57BF4F8C9340939A008B
S11306D0559A10828FEF8183828383838483FF9171
S11306E0EF91BF91AF919F918F917F916F915F91A6
S11306F04F913F912F910F900FBE0F901F9018951F
S11307001F920F920FB60F9211245F936F937F93F2
S11307108F939F93AF93BF93EF93FF93909199001F
S113072080919A00981789F08091990090E0019641
S113073064E170E019D0E0919900F0E0EB57FF4FCD
S113074090819CB98093990001C05598FF91EF91D5
S1130750BF91AF919F918F917F916F915F910F9016
S11307600FBE0F901F90189597FB072E16F4009458
S113077006D077FD08D00BD007FC05D03EF4909549
S113078081959F4F0895709561957F4F0895AA1B99
S1130790BB1B51E107C0AA1FBB1FA617B70710F068
S11307A0A61BB70B881F991F5A95A9F7809590959A
S10D07B0BC01CD010895F894FFCFB9
S10907BA00FFFFFFFF0039
S9030000FC
